:020000040800F2
:10000000883B0020D9000008E54C0008CF390008E3
:1000100000000000000000000000000000000000E0
:100020000000000000000000000000006D640008F7
:100030000000000000000000355C0008E9700008C6
:10004000EB000008EB000008EB000008EB000008E4
:10005000EB000008EB000008EB000008EB000008D4
:10006000EB0000088D0F00089D0F0008EB00000852
:10007000EB000008AD710008EB000008EB00000881
:10008000EB000008EB000008BD710008EB00000861
:10009000EB000008EB000008EB000008EB00000894
:1000A000EB000008EB000008EB000008EB00000884
:1000B000EB000008EB000008EB000008EB00000874
:1000C0000448854600F01CFD00480047719F000869
:1000D000C046C046883B002004488047044800478B
:1000E000FEE7FEE7FEE7FEE7FEE7FEE753710008E6
:1000F000C100000830B50B46014600202022012433
:1001000009E00D46D5409D4205D31D469540491B4B
:100110002546954040191546521E002DF1DC30BD94
:1001200070B500242546002801DA01244042002948
:1001300001DA01254942FFF7DDFFAC4200D0404221
:10014000002C00D0494270BDF0B51FB40646002017
:1001500082B005464024019100901BE0019922469F
:100160000F46304600F030F8049A059B801A9941FA
:1001700010D310461946224600F016F8361A8F4161
:100180000197224601200021009F00F00DF8381849
:100190004D4100902046641E0028DFDC019B009842
:1001A0002946324607B0F0BD10B5202A04DB0146CF
:1001B000203A9140002010BD914020239C1A034614
:1001C000E3401943904010BD10B5202A04DB0846D7
:1001D000203AD040002110BD0B46D340D04020240F
:1001E000A21A91400843194610BD10B5202A06DB1B
:1001F000CB170846203A1041C1170B4306E00B46C7
:100200001341D0402024A21A91400843194610BD42
:1002100003460B439B0703D009E008C9121F08C01F
:10022000042AFAD203E00B780370401C491C521ECA
:10023000F9D27047D2B201E00270401C491EFBD2D5
:1002400070470022F6E710B513460A4604461946E1
:10025000FFF7F0FF204610BD421C0178401C00292A
:10026000FBD1801A7047F8B502464A40D40F4200CD
:100270004B0052085B089A4202D2024608461146D9
:100280004A0023D0C30D4A00DDB2120EAD1A202D54
:1002900035DA49020126490AF6058A19002C00D0F0
:1002A000524220214F1B1146B9402A411018C20D5D
:1002B0009A4221D0002C17D0012D08DCDA05801AD3
:1002C000D20F8019D207DBB200F036FBF8BDDA0599
:1002D000801A012340001B06C01880185A4280185B
:1002E000CA0F1043490007E04908C2071143DA0565
:1002F000801A80194008801800F016FBF8BD6100D4
:100300000122511A001BF7E70122D2075140AAE748
:100310000122D2075040A6E7024670B54A40D30FEB
:10032000DB0740002DD04A002AD0010E140E000237
:1003300012020919400A520A8418E501044654437E
:10034000000A120A2E045043A4194219200CC54376
:10035000AA18120C0125AD03521C521912047F3940
:10036000240400D0521C104301D44000491EC2B2E4
:100370000C06C0092018401C4008802A02D003E067
:10038000002070BD40084000002900DA002018431A
:1003900070BD70B502464A40D50F40004A00ED07D7
:1003A00040085208002814D0002A12D0C40DD30DE2
:1003B00041020120C0055202490A520AE41A0918F2
:1003C00012187D34914201D3641C00E04900002CD6
:1003D00001DA002070BD0023914201D3891A034342
:1003E000400849000028F7D100290AD0914202D1E3
:1003F0000121C90705E0914201D2012101E001215B
:10040000C943E005C018401900F08EFA70BD000025
:10041000F0B507460846584087B0C00F0490480022
:100420000E46590040084908BC1A884105D2384692
:1004300031461E4617460B460246580040081043F8
:100440004DD0300D039040055900400D490D0590E9
:10045000401A0290402873DA18030121000B0905A5
:100460000843019004980092002806D01146019A92
:1004700049420020904100910190029840210A1ABF
:1004800001990098FFF790FE05460C466B4607CB96
:10049000FFF7ABFEC0197141039A0E0D0023D71769
:1004A00056401A467A40164344D0049A002A2DD06A
:1004B000029A012A039A15DC1205C01A91410126FD
:1004C0003605001C7141D20F059ED20700930192A0
:1004D00002962A46234600F0A1FA07B0F0BD38463E
:1004E0003146FAE71605234A0F46B218C01AB7413B
:1004F00001210905001C4F4100187F4111461818C1
:100500007941E20F10436D19644113E0E2076D0871
:1005100015436408C2071443039A01261205C01A42
:1005200091413605001C7141CE074008304349080F
:10053000C01851412A46234600F063FACDE7FFE791
:10054000049801224000C117121A00238B4104981D
:100550003146C417381AA141EEE730B40124E4074C
:10056000634030BC54E730B40124E407614030BC40
:100570004EE700000000E0FFF0B51FB488B00B9913
:100580000998002448400999C00F49004908099179
:10059000C0070B990090490049080B9109990898E8
:1005A000A64608431CD00B990A98084318D009980E
:1005B00001244000420D4800410D09982405000324
:1005C000000B204309900B980003000B20430B9075
:1005D00050181C494018002201901446104605E0AE
:1005E000002001460DB0F0BD032801DA034600E00B
:1005F00003239C46C11A0AAE0AE05F0008ADED5B1A
:100600004F00F75B7D430027AA187C41491C5B1E05
:100610006145F2DD410004AB5A522104120C0A4339
:10062000240C401C0828DFDB0198029000997046DA
:1006300001910090059B049A0799069800F0EEF945
:10064000D0E700000DFCFFFFF0B50C465C4085B024
:10065000E40FE40703944C00002664085900944614
:10066000490802460296224321D062460A431ED020
:100670006200570D4A000E032303550D0124024664
:100680002C492405781B1B0B360B401823432643AB
:10069000614600901C46501AB44103D30098401C98
:1006A000009002E0921800985B41002803DA0020D5
:1006B000014605B0F0BD0020012109050746864628
:1006C00011E064461D46141BB54106D36546521B16
:1006D000B341744607430C43A646CD07400849087A
:1006E000284392185B4105460D43EAD11046184352
:1006F00013D06046194650407140084306D060460A
:10070000101AB34106D20122002306E00022012381
:10071000DB0702E00122D243531000987446010522
:10072000381C6141029C039D0019694100F069F980
:10073000BFE70000FD03000070B54B005B080343FA
:100740000BD04B005C0D002633466542B341D417F5
:10075000AD1AA34102DB0020014670BD120530181E
:10076000514170BD10B500229623114600F0E4F807
:1007700010BD00000EB5C217C10F5040CA07401887
:100780000021054B0293019200910A460B4600F0AE
:1007900045F903B000BD0000330400000EB5054963
:1007A0000291002100910A460B46019100F036F9B2
:1007B00003B000BD33040000410040020122400AA2
:1007C000D205090E80187F2901DA0020704796298A
:1007D00003DC9622511AC84070479639884070470A
:1007E00070B5CD0F4A0009030123090B1B051943FE
:1007F0000B4BED070024520D9A4201DA002070BD28
:10080000074B34339A4203DC9A1AFFF7DDFC02E00F
:100810000449511888402C43F1D0404270BD00007B
:10082000FF030000CDFBFFFF4A0009030123090B72
:100830001B051943094B10B5520D9A4201DA0020ED
:1008400010BD064B34339A4203DC9A1AFFF7BCFC06
:1008500010BD03495118884010BD0000FF0300007F
:10086000CDFBFFFFC20FD207400040080BD0C10DE7
:100870000723DB01C91840020905400A1143C208D9
:1008800040071143704700200146704710B500290A
:1008900004DB0124E40740428C412146002B04DBA9
:1008A0001C460123DB075242A3418B4200D1824206
:1008B00010BD000010B5002904DB0124E40740420C
:1008C0008C412146002B04DB1C460123DB075242EE
:1008D000A341994200D1904210BD0000CB0FDB072D
:1008E000490010B5490802460A4307D00A0D0724FB
:1008F0000903E401090B121B002A01DC002010BDD2
:10090000C900440F0C43C100E018D205801800F064
:100910000BF810BD0122D207002800DB101A0029B5
:1009200000DB511A81427047002904DA401C49005B
:1009300001D140084000704770B40024050C05D177
:100940001024000402D1002921D01124050E01D168
:1009500000020834050F01D10001241D850F01D1CB
:100960008000A41C002801DB4000641C002908D082
:1009700020252E1B0D46F540A14000D00121294322
:10098000084301061B1B000ADB1D02D5002070BCBA
:100990007047DB05181880180029F8DA401C490058
:1009A000F5D170BC40084000704770B5002801DCEC
:1009B000002070BD410040020126400AF605090EE4
:1009C0008019CA0701D14000491E4D10002211466E
:1009D0003F353346CB409B18D418844201D8001BC6
:1009E0001A464000491C1729F3DD5100814202D20A
:1009F0000021C94300E00021E8058018FFF794FFBB
:100A000070BD10B5002B08DA0024401C614192181B
:100A10005B411A4301D14008400010BDF0B51FB43E
:100A200082B005460C0003D0084607F0AFF802E09C
:100A300007F0ACF820300246009021462846FFF728
:100A4000B3FB049B059A04460F4618431143084321
:100A500014D0184610431BD0009840210A1A18469B
:100A60000599FFF7B1FB05460E46009A05990498D3
:100A7000FFF79AFB084305D0012004E020463946E1
:100A800007B0F0BD0020C11705430E432C43374388
:100A900000990E986305401A7905E40A00220C4378
:100AA000FD0A0A3002D500200146E9E701051019C8
:100AB00069410C9C0D9D00196941FFF7A2FFDFE71A
:100AC0004A0009030123090B1B0519430A4B10B502
:100AD000520D9A4202DA0020014610BD064B343313
:100AE0009A4203DC9A1AFFF76FFB10BD034BD21832
:100AF000FFF75AFB10BD0000FF030000CDFBFFFF16
:100B0000064C0125064E05E0E36807CC2B430C3C60
:100B100098471034B442F7D3FFF7D6FA98DF0008AD
:100B2000B8DF000870B58C180578401C6B075B0FA8
:100B300001D10378401C2A1106D10278401C03E041
:100B400006780E70401C491C5B1EF9D12B0705D49A
:100B50000023521E0DD40B70491CFAE70378401C89
:100B6000CB1A921C03E01D780D70491C5B1C521EB1
:100B7000F9D5A142D8D3002070BD70B504462068D5
:100B80008168490720D5816810254907002905DAC1
:100B90008168890702D481682943816001F0B6FE2B
:100BA00006460DE001F0B2FE801B022808D9A06BBA
:100BB0002843A063E06B01210843E063012070BD7E
:100BC000206880684007EDD4002070BD10B5014654
:100BD000486A826B50231A420AD1816B0122520269
:100BE000114381630168CA681205920F05D020E0A5
:100BF000006B026B0846904710BD827E002A18D118
:100C00000A68120715D58A6801235207002A09DBF2
:100C10004A680C24A2434A60816B1A02914319432B
:100C2000816306E0816B202211438163C16B19430C
:100C3000C16301F0AFF910BD10B5406A816B40226D
:100C400011438163C16B04221143C16301F0A4F914
:100C500010BD10B5406A01F09EF910BD70B5114C81
:100C6000114DA078617901260843297808430028AE
:100C700008D1AF220D491201881AFFF7C9FA00F016
:100C80001BF8A670A07800280AD12878012807D17F
:100C9000820207490748FFF7BBFA00F0A5FAA670E1
:100CA00070BD00002000002010000020E00F002098
:100CB000D01A0020F0040020F8B54E4C002020800F
:100CC00060804D48231D188058800025002019465B
:100CD0001A3949781A4649001A3A9289002D24D1C6
:100CE000464B984221D201281FD9424B163B1C7813
:100CF000012C62D0441EA600414C3619765A964209
:100D000013D2461CB6003619765A96420DD9861E65
:100D1000B6003619765A964207D2861CB6003419A8
:100D2000645A944201D918820125354B314F840011
:100D30001B5B3E88B34200D93B80314EA4196488C6
:100D40007E88B44200D97C802A4F3F1D3E88B34242
:100D500000D23B807E88B44200D27C80254E0A3689
:100D60003768FB18336073681B197360401C80B2CE
:100D7000AF239B009842B1D300F08CFFAF253446DF
:100D8000AD0029462068FFF7B5F920602946606864
:100D9000FFF7B0F96060203C6078164940000A5ABD
:100DA000091D085A1018FFF7F9FC0022D243FFF77B
:100DB000C3FCFFF739FDE081F8BD441EA600104CCE
:100DC0003619765A9642B0D9461CB6003619765A6C
:100DD0009642AAD2861EB6003619765A9642A4D9F1
:100DE000861CB6003419645A94429ED2188201259A
:100DF0009BE7000036000020FF0F0000BA02000051
:100E0000F0040020F8B50446206881688907890F3E
:100E1000012930D10168C90702D1C16809042AD566
:100E200081680522114010250126012907D0A06BF9
:100E30002843A063E06B3043E0630120F8BD816884
:100E400002221143816021680320086001F05EFDE9
:100E500007460CE001F05AFDC01B022807D9A06B21
:100E60002843A063E06B3043E0630120F8BD2068B5
:100E70008068C007EED10020F8BD0000F8B5044638
:100E800000200090206881688907890F012905D119
:100E90000168C90737D1C168090434D481681B4A85
:100EA000102611400125002907D0A06B3043A06314
:100EB000E06B2843E0630120F8BD8168294381602D
:100EC000144813490068FFF715F9009002E00098F4
:100ED000401E009000980028F9D101F017FD074648
:100EE0000CE001F013FDC01B022807D9A06B3043B2
:100EF000A063E06B2843E0630120F8BD2068006830
:100F0000C043C007EDD10020F8BD000017000080ED
:100F100040420F000C00002010B50248C07805F0D8
:100F20005FFB10BD2000002010B5446A204601F090
:100F30003BFA0120207110BD10B5446A204601F033
:100F400013FA0120207110BD10B5446A20690421F4
:100F500008432061204601F029FA0120207110BDCC
:100F600010B5446A2069042108432061204601F03D
:100F7000FDF90120207110BD10B5406A01F015FA8D
:100F800010BD10B5406A01F0F0F910BD10B502486F
:100F900001F035FB10BD0000B401002010B502487F
:100FA00001F02DFB10BD00000C02002010B504461E
:100FB0000549206840181421FFF79CF88000206440
:100FC0000248E06310BD0000F8FFFDBF00000240D2
:100FD00030B5056C0124AC40C56B6C60046863607F
:100FE0004368102B04D0036899600068C26030BD6C
:100FF00003689A600068C16030BDFFB581B00646E5
:101000000F461446002550004042C01C009055E099
:101010000498002809D00498012815D004980228C3
:1010200021D0049803282DD03AE0781B81B2301BE0
:1010300080B20A9A03F011F9381B81B2701B80B29A
:101040000A9A03F00AF92BE0781981B2301B80B2BA
:101050000A9A03F002F9381981B2701B80B20A9A19
:1010600003F0FBF81CE0381B81B2701980B20A9AB9
:1010700003F0F3F8781B81B2301980B20A9A03F0BA
:10108000ECF80DE0781981B2301980B20A9A03F0B9
:10109000E4F8381981B2701980B20A9A03F0DDF8C9
:1010A0000098002804DB641E0098A100401A0090FC
:1010B0006D1C0098A9000818801C0090AC42A7DAAB
:1010C00005B0F0BDFFB583B00D9D0C9C0095059853
:1010D000049B061B0398B2B20719B8B2194603F075
:1010E00069F8069BB2B2B8B20095194603F062F8EF
:1010F0000698039A001B83B2029004980095001989
:1011000081B20190104603F055F80298009583B221
:101110000198059A81B2104603F04CF80198E2B2AA
:1011200081B20095B8B20023FFF767FF0298E2B2E0
:1011300081B20095B8B20123FFF75FFF0198E2B2D8
:1011400081B20095B0B20223FFF757FF0298E2B2D6
:1011500081B20095B0B20323FFF74FFF07B0F0BD97
:10116000F8B50C461E49FFF7D7F8FFF725FB0546F3
:1011700078214F1B5C226C2330211046009403F031
:1011800019F82E465C363023B2B219465C20009422
:1011900003F010F8B2B2B0B26C233021009403F027
:1011A00009F8E8195C3082B26C23B0B21946009499
:1011B00003F000F8D4226C2330211046009402F092
:1011C000F9FF6C235C2219465520009402F0F2FFCF
:1011D0003023DB221946D420009402F0EBFFF8BD47
:1011E0000000F04272B6FEE730B500200B4A0C4B0F
:1011F00081005D5A146864191460C91849885468DC
:1012000061185160401C80B2FF28F1D91068000AB3
:1012100010605068000A506030BD0000400000209F
:10122000F004002010B50B4801F05DF8094801F00A
:101230003BF8094802F01EF9064800218176C16199
:1012400000F0ACFE054906200860024800F008FEE8
:1012500010BD000074010020B402002068010020CD
:1012600010B504480121C1710172007905F06CFAD2
:1012700010BD000020000020FFB58BB00C460B987D
:10128000FFF770FA0E99FFF747F8FFF7EBFA002225
:10129000EE4BFFF7D9F9FFF7C7FA80B20790EC4D94
:1012A0002046FFF7DFFAAC4207DB0022E94BFFF7ED
:1012B000AFF8FFF713FB04464AE0E74A944207DB26
:1012C000E64AE74BFFF7A4F8FFF708FB04463FE0C8
:1012D000E44BE54A9C4206DBE44BFFF799F8FFF745
:1012E000FDFA044634E0E24B9C4206DBE14BFFF79B
:1012F0008FF8FFF7F3FA04462AE0DF4BDF4A9C42FF
:1013000006DDDF4BFFF784F8FFF7E8FA04461FE03D
:10131000FF239B059C4207DBDA4ADB4BFFF778F89B
:10132000FFF7DCFA044613E0D84B9C4206DBD84BAF
:10133000FFF76EF8FFF7D2FA044609E03F231B06D9
:101340009C4205DBD34BFFF763F8FFF7C7FA04466F
:101350002046FFF787FA0122FFF7EEF9BF4ACE4B8E
:101360005242FFF7FAF8CD4CCD4D22462B46FFF7FF
:101370006BF9BD4ACB4E52423346FFF7EEF8FFF70A
:10138000ADFAFFF76FFAC84F00223B46FFF7F4F8BB
:10139000B54AC64B5242FFF757F9FFF79FFA0C9038
:1013A0000D98FFF75FFAAD4ABB4B5242FFF7D5F8F5
:1013B00022462B46FFF748F9AB4A33465242FFF725
:1013C000CCF8FFF78BFAFFF74DFA00223B46FFF708
:1013D000D3F8A54AB54B5242FFF736F9FFF77EFA2C
:1013E0000D9000241FE106940E984000000E3FD09F
:1013F000AF490E9888427DD10C98FFF733FA00224E
:101400000E460546D243FFF797F9049005910D98D3
:10141000FFF728FA029003912046FFF7BFF90191E8
:1014200000900B98FFF7BAF90022A24BFFF795F84E
:1014300002460B4600209F49FFF706F9019B009AE0
:10144000FFF79AF82A463346FFF796F8039B029A6D
:10145000FEF7DEFF0022984BFEF7DAFF059B049AA9
:10146000FFF77BF8FFF7BCF9944962008852CBE0A4
:101470000B98001B401E80B206900C98FFF7F2F903
:1014800000220746D2430A91FFF756F905460E4659
:101490000D98FFF7E7F9059104900A992046029705
:1014A0000391FFF77BF9019100900B98FFF776F914
:1014B0000022804BFFF751F802460B4600207D4981
:1014C000FFF7C2F8019B009AFFF756F8039B029AB8
:1014D000FFF752F8059B049AFEF79AFF0022764B1D
:1014E000FEF796FF2A463346FFF737F8FFF778F9FD
:1014F000014600E004E0069842007048815283E013
:10150000079884423AD80C98FFF7ACF900220746B6
:10151000D2430991FFF710F905460E460D98FFF7E3
:10152000A1F9049005910999204602970391FFF7CC
:1015300035F9009001910798FFF730F902460B4604
:1015400000205C49FFF780F8019B009AFFF714F830
:10155000039B029AFFF710F8059B049AFEF758FFC9
:101560000022554BFEF754FF2A463346FEF7F5FF9F
:10157000FFF736F951496200885245E00C98FFF7B1
:1015800071F900220746D2430891FFF7D5F804907D
:1015900005910D98FFF766F9054602970E460798E4
:1015A00008990391201AFFF7E5F801910090079937
:1015B0000B98401AFFF7DEF83E4F00223B46FEF73D
:1015C000CCFF02460B4600203946FFF73DF8019B51
:1015D000009AFEF7D1FF00223B46FEF7C4FF039BB3
:1015E000029AFEF7C9FF2A463346FEF711FF002292
:1015F000314BFEF70DFF059B049AFEF7AEFFFFF798
:10160000EFF82E496200885206982C4940000B5E84
:101610002B4A934200DD0A520A5E002A01DA0022B8
:101620000A52641CA4B20B98844200D2DBE600206C
:10163000224A244B04E04100545A5C52401C80B2C0
:101640000B998842F7D30FB0F0BD0000000059405D
:101650009A9959400000E03F295C3F4033333333CF
:101660003333D33F000020409A9999999999C93F03
:10167000CDCC0C409999B93F6666E63F7B14AE47E6
:10168000E17AB43FB81E85EB51B8AE3FCDCC4C3FAC
:10169000E17AA43FE17A943FCC0C10401D386744B6
:1016A000696F03C06666FA3F00FEAF4066660A4097
:1016B0000000C8420000F03F00CC9F40B42C002046
:1016C000FF0F0000E4290020F7B584B00846FFF7BB
:1016D000C9F84A4A4A4BFEF740FF4A4C4A4D224657
:1016E0002B46FEF7B1FF4A4E484A3346FEF735FF18
:1016F000FFF7F4F8FFF7B6F8464F00223B46FEF737
:101700003BFF424A444BFEF79FFFFFF7E7F8059087
:101710000698FFF7A7F8394A394BFEF71EFF224615
:101720002B46FEF791FF394A3346FEF716FFFFF7C7
:10173000D5F8FFF797F800223B46FEF71DFF334A26
:10174000354BFEF781FFFFF7C9F8069000200290A5
:1017500041E00698FFF786F804460D460598FFF726
:1017600081F806460F460498FFF718F802460B4624
:1017700000202A49FEF768FF009001910298FFF7C8
:101780000DF8274A274BFEF7F7FE019B009AFEF75C
:10179000F3FE08F00DFC32463B46FEF7EDFE00225C
:1017A000214BFEF735FE22462B46FEF731FEFFF7B2
:1017B00017F801B202981D4A400011521C4B994281
:1017C00000DD1352115E002901DA00211152029846
:1017D000401C80B20290049902988842B9D300203C
:1017E000124A144B04E04100545A5C52401C80B22F
:1017F00004998842F7D307B0F0BD0000CDCCCCCC23
:10180000CC0C10401D386744696F03C0666666667D
:101810006666FA3F00FEAF4066660A40008076408A
:101820001839359D46DF913F00CC9F40B42C0020F5
:10183000FF0F0000E4290020FFB581B00C461D46D3
:101840000198FEF78FFF2946FEF766FDFFF70AF8BD
:101850000022674BFEF7F8FEFEF7E6FF80B200902D
:10186000644E654D2046FEF7FDFFB44207DB2A4675
:10187000624BFEF772FEFFF731F804461FE0604A44
:10188000944207DB5F4A604BFEF767FEFFF726F8DE
:10189000044614E05D4A944207DB2A465C4BFEF79F
:1018A0005CFEFFF71BF8044609E05A4A944206DB47
:1018B0002A46594BFEF751FEFFF710F80446204622
:1018C000FEF7D0FF0122FEF737FF4E4E534F764210
:1018D00032463B46FEF741FE514A524BFEF7B4FEFC
:1018E0007208514BFEF739FEFEF7F8FFFEF7BAFF1C
:1018F0004E4C00222346FEF73FFE4D4D72082B460C
:10190000FEF7A2FEFEF7EAFF02900398FEF7AAFF99
:1019100032463B46FEF721FE414A424BFEF794FE1B
:101920007208414BFEF719FEFEF7D8FFFEF79AFF4B
:1019300000222346FEF720FE72082B46FEF784FEA7
:10194000FEF7CCFF039000263A4F41E00098864214
:101950001AD80298FEF786FF0022D243FEF7ECFE6B
:1019600004460D4603990298FEF77DFC3249FEF7C6
:101970007AFCFEF777FF22462B46FEF7EEFDFEF7D8
:101980002FFF7100785216E00298FEF76BFF0022DD
:10199000D243FEF7D1FE04460D4627490398FEF7D1
:1019A00062FCFEF75FFF22462B46FEF7D6FDFEF7F0
:1019B00017FF7100785270003A5E20498A4200DDBC
:1019C0003952395E002901DA00213952761CB6B24B
:1019D00001988642BAD30020194A04E041007B5A9C
:1019E0005352401C80B201998842F7D305B0F0BD34
:1019F00000005940CDCC0C409A9999999999C93FCA
:101A00009A99D93F333333333333C33FCDCC8C3FF3
:101A10009999B93FCDCC4C3F9999A93FCC0C104036
:101A20001D386744696F03C06666FA3F00FEAF4029
:101A300066660A40B42C00200060FE44FF0F0000E0
:101A4000E4290020F8B50746384600F093F8002551
:101A5000474E2C4618204443385D00285DD0E419D9
:101A6000607800280AD10120607000F04FFF6060AC
:101A70000C20002168438019417081606078002843
:101A800004D000F043FF6168401AA060607801282C
:101A900019D1A0680A2816DB0220607001200C21F1
:101AA00069437054E168002911D000F02FFF2169CB
:101AB000411AFF202D30814202D8E068401CE060CE
:101AC00000F024FF20616078022802D011E0E0607D
:101AD000F6E77D20A168C00081420ADB0320607028
:101AE0000C21694301208919887000F00FFF6430D0
:101AF00060617D20A168C000814233DB00F006FFF9
:101B0000616988422ED300F001FF643060610C21CE
:101B1000012069438919C87024E000F0F7FE0146EE
:101B2000E01902698A1AFF212D318A4206D90C2157
:101B300069438919C2684A600021C160417800295F
:101B400008D00021417081680C20684380198160B1
:101B500001214170002128460C2250433154801944
:101B60008170C1706D1CEDB2052D00D271E7F8BD1A
:101B7000A829002070B50446104D012149032846CC
:101B800000F0B6FE207001218903284600F0B0FE67
:101B900020760B4E0221304600F0AAFE3021085577
:101BA0000121304600F0A4FE482108550121C90357
:101BB000284600F09DFE6034207070BD000800488B
:101BC000001400480C2148430349411803200856DB
:101BD0000022CA7070470000A82900200C21044B85
:101BE00048431956024600209854084670470000A2
:101BF000A8290020F8B506460F46002500240BE072
:101C0000305D3038092805D8BD4201D12046F8BDE5
:101C10006D1CEDB2641CE4B23046FEF71DFBA04221
:101C2000EED8FF20F8BD0000FFB581B0054617468D
:101C30001648009001240846FEF794FD2946FEF759
:101C40006BFB0646124D06E0641C21460098FEF729
:101C500051FA0029F8D121460098FEF74BFAFEF719
:101C600081FD3146FEF795FBA842EDDC3C80214624
:101C70000098FEF73FFAFEF775FD3146FEF789FB47
:101C8000FEF79AFD0499088005B0F0BD00A24A0451
:101C900000FF7F47FEB50020019000903F49086695
:101CA00048668866C86600243D48878940784000B9
:101CB000029000205721821EC9008A4262D2411E32
:101CC000384B8900CD1861006D5ABD423FD3461C88
:101CD000B600F618765ABE4239D89200D518029A44
:101CE000AA5ABA424ED3821C9200D318029A9A5A28
:101CF000BA4247D86B461A5D002A02D0022A05D0A4
:101D000040E001AA5052012119553BE0620001A9AF
:101D1000895A401AFEF72EFD054621480E46C07826
:101D20001F49C0002831091803C900221E4BFEF7C5
:101D300023FC00221D4BFEF787FC2A463346FEF7A4
:101D40001BFC164BE20060339A1803C220E0BD4230
:101D500018D8451CAD00ED18695AB94212D369462E
:101D60000D5D012D0ED19200D518029AAA5ABA42E1
:101D700008D8821C9200D318029A9A5ABA4201D308
:101D800002220A55401C80B2AF218900884291D3BB
:101D9000641CE4B2022C8CD3FEBD0000701E002037
:101DA00020000020F00400200000244000A06C402F
:101DB000F8B50446002625462035287D012808D0A0
:101DC00001202875206881688907890F012908D1B9
:101DD00001E00220F8BD0168C90738D1C1680904D3
:101DE00035D4A16BFF220132914302221143A1633A
:101DF000C1688907890F0091C16889088900C1609D
:101E00002068816892071143816000F07FFD0746DA
:101E10000EE000F07BFDC01B022809D9A06B022157
:101E2000884310210843A063002028750120F8BDD5
:101E3000206880680028ECDB2068C168009A1143A4
:101E4000C160A06B80088000401CA06304E0A06B10
:101E500020210843A0630126002028753046F8BDE4
:101E6000F8B500250022009204462034227D012A84
:101E70003BD00123237502689668760779D4414FD9
:101E80004E68BE4257D0966A0F78BB401E4396629A
:101E90000123C26A1B079A421FD0012A1DD0022AC1
:101EA0001BD0032A19D0042A17D0052A15D0062AD8
:101EB00013D0072A11D002688B6856697607760F0F
:101EC000B3420AD05369DB08DB0053610068426902
:101ED0000B7A5B075B0F1A4342610868102806D033
:101EE000112804D0122802D048E00220F8BD264B69
:101EF0009A68102809D011280AD001200006024350
:101F00009A600868102806D038E00120C005F6E77E
:101F100001208005F3E71E481C490068FEF7EAF837
:101F20000A214843009002E00098401E009000986B
:101F30000028F9D122E0906A0E78B340984390626D
:101F40000868102803D0112801D0122816D10E4994
:101F50008A68102807D0112808D001200006824383
:101F60008A600BE005E00120C005F8E7012080054C
:101F7000F5E7816B20221143816301250020207544
:101F80002846F8BD011000000027014040420F0024
:101F90000C0000207047704770470000F8B50446F9
:101FA0000025002C05D0A06B26462036002802D044
:101FB00007E00120F8BD0020E0633075204600F006
:101FC000A9F8A06B1022C006002870DB2068816889
:101FD00049076CD4A16B1301994302231943A163F0
:101FE00081688907890F012905D10168C9070FD1C7
:101FF000C16809040CD4C16818239943A368194324
:10200000C16020680169636889008908194301611A
:102010002068C1683D4B1940C160207E8103607E0D
:10202000C0030143A07E43031943A36A012B02D0DE
:1020300001231B0300E000231943E36819432369CC
:10204000022B09D00023194333795B001943E67E44
:102050000123012E02D00AE00423F4E7002827D050
:10206000A06B20263043A063E06B1843E063E06977
:102070000646FF3EC23E02D0266A30430143206836
:10208000C6680E43C6600126E06A3607B04213D028
:10209000012811D002280FD003280DD004280BD01E
:1020A000052809D0062807D0072805D010E027E02A
:1020B000012000040143DAE720684669F608F600CB
:1020C000466120684669A78D7F077F0F3E434661C2
:1020D0002068C0680E4E3040884207D10020E0637F
:1020E000A06B80088000401CA0630DE0A06B022163
:1020F00088431043A063E06B1843E063012503E0CD
:10210000A06B1043A06301252846F8BD1902FEFF0D
:10211000E7FF3F8370B586B00546142101A8FEF79E
:1021200090F81C492868884231D11B498A694015BA
:1021300002438A618A69024000924A6900020243AE
:102140004A61496901400091C0200190032002903A
:1021500000260396092001A9C00600F019FB104CC7
:102160000E4820606660A6608020E060400020612C
:10217000800060612020A0610002E061204600F044
:1021800093FA002801D0FFF72DF82C63656206B0A2
:1021900070BD000000240140001002400800024011
:1021A000B401002070B50446002021688968490701
:1021B00023D425462035297D01291CD001212975EC
:1021C000617E012902D02046FEF758FE002811D179
:1021D000A16B0B4A1140FF2201321143A163002180
:1021E000E163297522681C21116021688A68042333
:1021F0001A438A6070BD022070BD022070BD0000CD
:10220000FEF1FFFFF7B5044600252068806840070F
:102210003ED426462036307D01280BD00127377565
:10222000607E012803D02046FEF728FE0546002DDB
:1022300002D02EE00220FEBDA06B17490840FF210E
:1022400001310843A0630020E0633075216B13481F
:102250008862216B1248C862216B124808632168AA
:102260001C200860206841681022114341602068EA
:10227000C1683943C1602168206B4031029B019ADB
:1022800000F03AFA2068816804221143816000E07E
:1022900002252846FEBD0000FEF1FFFFCD0B000821
:1022A000530C0008390C000870B50446254620354B
:1022B000287D012807D001262E752046FEF75DFCFB
:1022C000002802D00CE0022070BD2046FEF79AFDE7
:1022D000002805D1A16BFF22013291433143A16354
:1022E0000021297570BDF8B5044626462036307D9C
:1022F000012808D0012737752046FEF73EFC054629
:10230000280002D02CE00220F8BD2068C1684908EE
:102310004900C160206B2121095C022908D100F02D
:102320004EF90546280003D0A06B40210843A06366
:1023300020684168102291434160002D05D020465D
:10234000FEF760FD002D05D00AE02046FEF75AFD9D
:102350000546F7E7A06BFF21013188433843A063AE
:10236000002030752846F8BD704770477047000060
:1023700070B54379012B13D00126467102230371F6
:1023800003681D68074C9440A5430C6849680C43DA
:1023900094402C431C60067100214171002070BDE7
:1023A000022070BDFE0F000070477047704770B587
:1023B0000446002C04D020790025002802D005E036
:1023C000012070BD6571204600F008F802202071E0
:1023D000256101202071002070BD0000F0B587B09C
:1023E0000546142102A8FDF72CFF1C4928688842E5
:1023F00031D11B49CA6948040243CA61CA69024013
:1024000001924A69001302434A61496901400191FE
:10241000102602960320039000270497092002A9A2
:10242000C00600F0B5F9104C0E4820606660A76049
:102430008020E06040002061800060612020A06179
:10244000C001E061204600F02FF9002801D0FEF71E
:10245000C9FEAC60656207B0F0BD000000740040CA
:1024600000100240300002400C020020F8B5044683
:1024700006980D4616469C460022617901291BD01C
:102480000121617102212171002D17D0E3683049CB
:102490009962E3682F49D962E3682F49196321687B
:1024A0000F6801231B071F430F60002825D0042855
:1024B00026D0082829D126E00220F8BDA3682749A4
:1024C0009962A3682649D962A368264919632168DD
:1024D0000F6801231B031F430F60002804D004284A
:1024E00005D0082811D105E0226808320DE02268E5
:1024F0000C320AE02268103207E02268143204E04D
:102500002268183201E022681C32002D13D02068A6
:10251000016801235B071943016063463146E068A7
:1025200000F0EAF8206802680121A9400A4302602D
:1025300000206071F8BD2068016801235B03194326
:10254000016063463146A06800F0D6F8EAE7000073
:10255000390F0008830F0008610F0008290F0008D9
:10256000790F0008490F000870B50446206802681A
:1025700001231B038B409A430260206802680125F7
:102580002B468B409A43026000290CD0E06800F093
:1025900016F821680A686B079A430A6000280CD075
:1025A0000421217170BDA06800F009F821680A6853
:1025B00001235B039A430A60F0E7257170BD30B5D3
:1025C000014620314A780023022A04D00422826383
:1025D0000B70012030BD026814680E25AC431460F6
:1025E000026814686408640014600125046C2A46BB
:1025F000C06BA24042604D700B70002030BDF0B443
:10260000C16B0B6801680C680422056C1646AE406D
:102610001E4210D066070ED50B689B0602D40B68CD
:1026200093430B60016C8A40C16B4A60C16A002908
:1026300038D0F0BC084702273E46AE4002461E4056
:102640002032002E15D0A60713D50B689B0605D4A3
:102650000B680A24A3430B6001215170016C8F4069
:10266000C16B4F6000211170816A00291AD0F0BC43
:1026700008470826AE401E4214D0230712D50B6827
:102680000E24A3430B600121046C0B46A340C46BD2
:1026900063608163517000211170016B002901D0CA
:1026A000F0BC0847F0BC704770B50446002C1FD042
:1026B0000220254620356870206802680D490A40CE
:1026C000A368616826691943E36833431943636962
:1026D0001943A3691943E369194311430160204673
:1026E000FEF764FC0020A06301216970287070BDB2
:1026F000012070BD0FC0FFFFF8B504468C460025D1
:10270000204620300178012909D00126067047783B
:102710000021012F05D0017002252846F8BD0220B6
:10272000F8BD02274770A163206801684908490085
:10273000016061462046FEF74BFCE06A002805D0A8
:10274000206801680E221143016009E020680168D9
:102750000A2211430160206801680422914301604C
:102760002068016831430160D7E7000070B5044676
:1027700000F0CCF80546601C02D00448007824180C
:1027800000F0C4F8401BA042FAD370BD0000002046
:10279000F8B5002297E0012696403340002B6FD019
:1027A0004C68012C05D0022C03D0112C01D0122C26
:1027B00010D1856854000327A740BD43CF68A740C8
:1027C0002F4387604468B4430D79ED06ED0F9540C3
:1027D00025434560C56856000324B440A646A5437A
:1027E0008F68B7402F43C7604C68022C01D0122C71
:1027F0000ED1D408A4002418256AA4465707FC0E5D
:102800000F27A740BD430F69A7402F4364462762A7
:1028100004687546AC430D79AD07AD0FB54025434F
:1028200005604C68E4004DD52A4CA5690126354366
:10283000A561A469344000949508274CAD002E1979
:10284000B5689407240F0F27A740BD430927FF064B
:10285000B84201D1002715E0204FB84201D101272D
:1028600010E01F4FB84201D102270BE01D4FB842C4
:1028700001D1032706E01C4FB84202D1042701E032
:1028800020E00527A7402F43B760184D2C689C43D4
:102890004E68F60300D51C432C606C689C434E6860
:1028A000B60300D51C436C60AC689C434E68F602CE
:1028B00000D51C43AC60EC689C434E68B60200D562
:1028C0001C43EC60521C0B681C46D44000D062E7ED
:1028D000F8BD000000100240000001400004004864
:1028E00000080048000C00480010004800040140A7
:1028F0000069084201D00120704700207047002A7B
:1029000001D0816170478162704700000148806892
:102910007047000000000020024881680278891892
:10292000816070470000002010B506480168102241
:1029300011430160002000F007F800F029F80020A2
:1029400010BD00000020024070B504460E4D7D20F1
:102950002978C000FDF7CEFB01460C480068FDF762
:10296000C9FB00F027FC002801D0012070BD042C19
:1029700007D200222146501E00F02AF86C60002089
:1029800070BD012070BD0000000000200C00002080
:1029900008B50848816901221143816181691140AC
:1029A0000091C26901040A43C261C06908400090F5
:1029B00008BD000000100240002805DBC106C90E5A
:1029C00001208840014908607047000000E100E0F4
:1029D00010B505F02DF910BDF8B504460D46002CD4
:1029E00012D043480068C007C00FA8420ED240482A
:1029F000016849084900294301600068C007C00F09
:102A0000A84203D00120F8BD0120F8BD2068394E4E
:102A100081070CD5400704D57068072109020843D7
:102A200070607068F0218843A16808437060207866
:102A3000C00732D06068012808D002280BD00328D4
:102A40000ED03168890710D40120F8BD31688903A0
:102A50000BD40120F8BD3168890106D40120F8BDEE
:102A6000716BC90301D40120F8BD71688908890020
:102A700001437160FFF74AFF074607E0FFF746FF93
:102A8000C11B1D48814201D90320F8BD70680C218B
:102A90000840616889008842F0D115480168C9077B
:102AA000C90FA9420BD901684908490029430160AF
:102AB0000068C007C00FA84201D00120F8BD2078EF
:102AC000400706D57068072109028843E16808437A
:102AD000706000F017F87168084A0906090F515C28
:102AE000C840074908600020FFF72EFF0020F8BD0E
:102AF00000200240001002408813000078A0000867
:102B00000C00002030B589B022A001460EC9C06873
:102B100005AC0EC4089023A001460EC9C06801ACE4
:102B20000EC40490234B59680C200A4602402248E8
:102B3000042A05D0214D082A04D00C2A00D12846A9
:102B400009B030BD8A02120F05ACA45CDA6A01AB91
:102B50001207120F9A5CC903890F022909D00329B1
:102B60000FD000231946FDF7EFFA214605F025F8AE
:102B7000E6E700231946FDF7E7FA214605F01DF8C0
:102B8000DEE7002328461946FDF7DEFA214605F068
:102B900014F8D5E702030405060708090A0B0C0D13
:102BA0000E0F10100102030405060708090A0B0C9A
:102BB0000D0E0F100010024000127A00006CDC02B3
:102BC000FEB50446002C0FD02078F94EF94DC00711
:102BD0005AD068680007800F012822D06868000773
:102BE000800F022802D006E00120FEBD6868C00305
:102BF000800F022815D0606801281AD001218904AD
:102C000000281AD005281FD02868B04328602868FB
:102C1000884328606068002828D0FFF777FE0746C1
:102C200020E0286880032FD5606800282CD101207F
:102C3000FEBD286830432860ECE72868B043286070
:102C4000286888432860E5E72868084328602868E2
:102C500030432860DEE7FFF759FEC01B642801D926
:102C60000320FEBD28688003F5D50DE0FFF74EFE7A
:102C7000074606E0FFF74AFEC01B642801D903207F
:102C8000FEBD28688003F5D4207880074CD568689D
:102C90000007800F14D068680007800F022804D155
:102CA0006868C003800F01280AD0E068002829D096
:102CB0002868012108432860FFF728FE074616E030
:102CC0002868800704D5E068012801D00120FEBDF6
:102CD0002968F82081432069C0000143296023E06E
:102CE000FFF714FEC01B022801D90320FEBD28688F
:102CF0008007F5D52868F82188432169C900084371
:102D0000286011E02868400840002860FFF7FEFDB9
:102D1000074606E0FFF7FAFDC01B022801D9032091
:102D2000FEBD28688007F5D42078000727D5E06924
:102D3000002812D0686A012108436862FFF7E6FDA7
:102D4000074606E0FFF7E2FDC01B022801D9032079
:102D5000FEBD686A8007F5D511E0686A400840004A
:102D60006862FFF7D3FD074606E0FFF7CFFDC01B03
:102D7000022801D90320FEBD686A8007F5D42078B7
:102D800004274007002874DA00200190E869C00099
:102D900008D4E869B9060843E861E869084000908A
:102DA0000120019084480168C90513D40168821587
:102DB00011430160FFF7AAFD029007E0FFF7A6FDAF
:102DC0000299401A642801D90320FEBD7A480068A0
:102DD000C005F3D5A068012811D0002814D005281B
:102DE0001AD0286A400840002862286AB84328623E
:102DF000A068002825D0FFF789FD02901DE0286A11
:102E0000012108432862F3E7286A4008400028624D
:102E1000286AB8432862EBE7286A38432862286AA0
:102E2000012108432862E3E7FFF770FD0299411A88
:102E30006248814201D90320FEBD286A8007F3D58C
:102E40000FE0FFF763FD029008E0FFF75FFD0299D6
:102E5000411A5A48814201D90320FEBD286A8007E1
:102E6000F3D40198012804D1E869012109078843B6
:102E7000E8612078C00641D5606901280CD0401D6A
:102E800027D0686B38436863686B4008400068630C
:102E9000FFF73CFD07462EE0686B38436863686BBC
:102EA000012108436863FFF731FD074606E0FFF79D
:102EB0002DFDC01B022801D90320FEBD686B8007D1
:102EC000F5D5686BF8218843A169C9000843686398
:102ED00014E0686BB8436863686BF8218843A169A4
:102EE000C9000843686309E0FFF710FDC01B022812
:102EF00001D90320FEBD686B8007F5D420788006D9
:102F00003CD568680007800F032813D06868000765
:102F1000800F022804D16868C003800F032809D0FD
:102F2000206A002819D0686B30436863FFF7EEFC15
:102F300006460EE0686BC00320D5206A01281DD02C
:102F40000120FEBDFFF7E2FC801B022801D903200F
:102F5000FEBD686BC003F5D510E0686BB0436863D5
:102F6000FFF7D4FC064606E0FFF7D0FC801B0228E2
:102F700001D90320FEBD686BC003F5D4606A002848
:102F80006DD069680907890F02294FD001273F06D4
:102F9000022806D02868B8432860FFF7B7FC04462B
:102FA00040E02868B8432860FFF7B0FC06460EE012
:102FB0000000010000100240007000408813000073
:102FC000FFF7A4FC801B022801D90320FEBD28685E
:102FD0008001F5D4E86A216B000900010843E8622A
:102FE000A16AE06A084369687B22D20391430843DF
:102FF0006860286838432860FFF788FC044606E0CC
:10300000FFF784FC001B022801D90320FEBD2868BD
:103010008001F5D523E0FFF779FC001B022801D9D8
:103020000320FEBD28688001F5D418E0012814D0E3
:103030006868E96A0322D203A36A02409A420AD16D
:103040000907226B090F914205D10F21890408401D
:10305000E16A884203D00120FEBD0120FEBD0020B0
:10306000FEBDF8B50446002C0CD0606A002600288E
:103070000AD026616661A66225464035687F002831
:1030800008D00BE00120F8BD6168C81FFD38F2D000
:10309000E661F0E72E77204600F05CF802226A77BE
:1030A000206801684023994301600723E1681B02FF
:1030B000994201D9002001E0012000030F273F02BF
:1030C000B94202D0994200D0A662FF23616805335D
:1030D00019402127A368BF023B40194323691340CD
:1030E000227D1943D207D20F11430123A2695B024B
:1030F0001A401143E26938231A401143226A80239F
:103100001A401143A26A9B011A40114322681160C0
:10311000A1690422090C1140626A10231A4011436C
:10312000626B08231A4011430F23E2681B021A4006
:1031300011430122120310400143206841602068BE
:10314000C16952109143C161266601206877002051
:10315000F8BD000010B586B00446142101A8FDF7A3
:1031600070F81149206888421BD110488269811487
:103170000A43826182690A400092426989010A43D6
:10318000426140690840009028200190022002908E
:103190000020039003210491059001A90448FFF742
:1031A000F7FA06B010BD00000030014000100240E8
:1031B0000004004810B50949401E884201D9012089
:1031C00010BD074C60610321081F04F031FD002091
:1031D000A06107202061002010BD0000FFFFFF005C
:1031E00000E000E07047704730B502462032137FA0
:1031F000012B26D001231377CB68002403252D0251
:10320000AB438D682B430125AD02AB434D682B4387
:103210000125ED02AB430D682B4301252D03AB4384
:103220000D692B4301256D03AB434D692B430125EC
:10323000AD03C969AB430B430068436414770020B6
:1032400030BD022030BD0000F0B502462032137FB1
:10325000012B21D0012616770223537703685D687E
:103260009C687027BD430F682F435F6000680B4B5D
:10327000984208D0B307984205D0094B984202D033
:10328000084B984204D180239C43496821438160C4
:10329000567700201077F0BD0220F0BD002C0140D1
:1032A000000400400040014070B50446002C05D0E9
:1032B00025462035687F002802D006E0012070BD39
:1032C00000202877204600F015F802206877211D9D
:1032D000206803F07BFF01224034A271AA77EA77CD
:1032E00022706270A270E270227162716A770020AF
:1032F00070BD000008B500682A4A2B4990420FD1E2
:103300008A69C01402438A618969014000910022E0
:1033100011460D20FFF75CFB0D20FFF74DFB08BDAC
:1033200001229207904207D1C86901221043C86167
:10333000C8691040009008BD1C4A904207D1CA6974
:1033400002200243CA61C9690140009108BD184AC0
:1033500090420FD1CA6920200243CA61C969014065
:103360000091002201211220FFF732FB1220FFF70B
:1033700023FB08BD0F4A904208D18A69012000044E
:1033800002438A6189690140009108BD0A4A90425E
:10339000FBD18A690120400402438A6189690140A6
:1033A000009108BD002C01400010024000040040C4
:1033B000001400400040014000440140014620311B
:1033C0004A7F012A01D00120704702224A77006813
:1033D0000D490122884208D09107884205D00B4947
:1033E000884202D00A49884208D181684907490FBA
:1033F000062906D001681143016002E0016811430B
:103400000160002070470000002C014000040040D3
:1034100000400140014620314A7F012A01D00120AD
:10342000704702224A770168CB6801221343CB60C0
:1034300000680D49884208D09107884205D00B49A1
:10344000884202D00A49884208D181684907490F59
:10345000062906D001681143016002E001681143AA
:103460000160002070470000002C01400004004073
:103470000040014001680A6A074B1A4207D10A6AF4
:103480009B101A4203D10A68520852000A600121B7
:103490002030417700207047111100000168CA6890
:1034A00052085200CA6001680A6A084B1A4207D1E2
:1034B0000A6A9B101A4203D10A68520852000A6035
:1034C00001212030417700207047000011110000D9
:1034D000F8B5044625462035287F012817D0012657
:1034E0002E7702206877206882687727BA43FF2307
:1034F0001B029A4382600A68502A31D00EDC202ACF
:103500004CD006DC002A49D0102A4BD146E00220DC
:10351000F8BD302A42D0402A44D135E0602A29D073
:10352000702A12D001231B03D01A3BD0984239D104
:10353000CB684A688968206803F09FFE206881682C
:1035400001229203114381602CE0CB684A688968AC
:10355000206803F092FE206881683943816021E091
:10356000CA684968206803F0A5FF5021206803F06D
:103570008FFE17E0CA684968206803F0ACFF60213D
:10358000206803F085FE0DE0CA684968206803F0F2
:1035900091FF4021206803F07BFE03E01146206884
:1035A00003F076FE6E7700202877F8BD704770B57F
:1035B0000446206801690025C9438907002916DBF4
:1035C000C168C943890712D4E91E0161012020772F
:1035D00020688069800703D02046FFF7E7FF05E0F9
:1035E000204600F0EBF8204600F07BF925772068B4
:1035F0000169C943490718D4C168C943490714D4AC
:103600000421C94301610220207720688069800578
:10361000800F03D02046FFF7C9FF05E0204600F0E9
:10362000CDF8204600F05DF9257720680169C9438F
:10363000090717D4C168C943090713D40821C9432E
:103640000161042020772068C069800703D02046EC
:10365000FFF7ACFF05E0204600F0B0F8204600F090
:1036600040F9257720680169C943C90618D4C168A3
:10367000C943C90614D41021C94301610820207729
:103680002068C0698005800F03D02046FFF78EFFB9
:1036900005E0204600F092F8204600F022F9257758
:1036A00020680169C943C90708D1C168C943C9076E
:1036B00004D1891E0161204600F074F92068016977
:1036C000C943090609D4C168C943090605D4802144
:1036D000C94301612046FFF785FD20680169C943A0
:1036E000490609D4C168C943490605D44021C943E4
:1036F0000161204600F06AF920680169C943890622
:1037000009D4C168C943890605D42021C943016190
:103710002046FFF768FD70BD70B586B004461421E1
:1037200001A8FCF78EFD0126B607216800221F4C78
:10373000331302251E48B14210D1616919436161FA
:103740006169194000911912019102950392049246
:10375000059501A9FFF71CF806B070BD154EB142E2
:1037600011D16169194361616169194000910321B7
:10377000890301910295039204920121059101A907
:10378000FFF706F8E8E70C4EB142E5D1616919434D
:103790006161616919400091B1150191029503922F
:1037A0000492059501A9FEF7F3FFD5E7001002404A
:1037B0000004004800400140004401407047F8B553
:1037C00004460D4626462036307F01280BD00120C6
:1037D00030770427002A08D0042A19D0082A2ED0CE
:1037E0000C2A55D13EE00220F8BD2946206803F09E
:1037F00057FD206881690822114381612068816931
:10380000B9438161206881692A69114381613FE080
:103810002946206803F08AFD206881690122D202CE
:103820001143816120688269012189028A43826192
:10383000206881692A6912021143816128E02946C2
:10384000206803F0B9FD2068C16908221143C161F5
:103850002068C169B943C1612068C1692A691143FF
:10386000C16115E02946206803F0EAFD2068C169BE
:103870000122D2021143C1612068C269012189027B
:103880008A43C2612068C1692A6912021143C16179
:1038900000203077F8BD70B50446002C05D02546D1
:1038A0002035687F002802D006E0012070BD00208E
:1038B0002877204600F014F802206877211D206840
:1038C00003F084FC01224034A271AA77EA772270C7
:1038D0006270A270E270227162716A77002070BD1E
:1038E0007047704730B504462046224620304032AB
:1038F000002908D0042908D0082908D05378012BC2
:1039000007D0012030BD837FF9E7C37FF7E7137845
:10391000F5E7022300292FD004292FD008292FD022
:1039200053700122206803F09BFC194A2168194B4F
:10393000914207D0994205D01748814202D01748DA
:10394000814204D1486C0125ED0328434864206876
:103950000124904207D0A107884204D01049884230
:1039600001D098420ED181684907490F06290CD031
:1039700001682143016008E08377D2E7C377D0E78D
:103980001370CEE7016821430160002030BD0000C4
:10399000002C01400040014000440140004801402B
:1039A0000004004010B5044606492068884201D151
:1039B00001F058FA04492068884201D100F020F84B
:1039C00010BD0000002C0140001400407047FEE7CD
:1039D00010B50C46722C0ED01721401FFCF7A0FB2F
:1039E00000290AD0204617211638FCF799FB002938
:1039F00003D0002010BD022010BD012010BD00002A
:103A0000F0B597B0F748FEF71DF8F74C002720787F
:103A1000A61D0125030004F0E8F8050465BAF3F2D9
:103A200063000120FEF7DAF8002806D0307802287B
:103A300001D2401C00E0002030700420FEF7CEF8D8
:103A4000EA4FEB4DEB4C002804D10420FEF7BAF806
:103A5000002818D03078012802D002280BD012E0BC
:103A60002878002800D0401E2870387800280AD016
:103A700001F03AF907E02078002800D0401EC0B2DB
:103A8000207002F0ADFD0220FEF7A8F8002804D156
:103A90000220FEF797F8002818D03078012802D0CD
:103AA00002280BD012E02878062800D2401C28708B
:103AB000387800280AD001F017F907E0207811289B
:103AC00000D2401CC0B2207002F08AFD0020FEF738
:103AD00085F8002804D001F031F9012003F03AFB09
:103AE00017B0F0BD0120FEF779F8002806D07078F5
:103AF000022801D2401C00E0002070700420FEF774
:103B00006DF8BD4CBD4D002804D10420FEF75AF8D5
:103B1000002813D07078012802D0022806D00DE0CA
:103B20002078002800D0401E207007E02878002868
:103B300000D0401EC0B2287002F006FE0220FEF740
:103B40004DF8002804D10220FEF73CF8002813D0DD
:103B50007078012802D0022806D00DE020780628CF
:103B600000D2401C207007E02878072800D2401CB3
:103B7000C0B2287002F0E8FD0020FEF72FF8002800
:103B8000AED0FDF74FFB022003F0E4FAA8E79C4813
:103B900003C8169115900120FEF720F800280CD0DC
:103BA000B078032801D2401C00E00020B070954896
:103BB00007709548077095480770B078944E0028B4
:103BC00006D001281DD002285AD0032816D1C0E003
:103BD0000220FEF703F8002805D03078022800D232
:103BE000401C3070E5700420FDF7F8FF002805D078
:103BF0003078002800D0401E3070E570E7E0EEE13C
:103C000014E10320FDF7EAFF002805D07D4908787C
:103C1000002807D0002008700220FDF7DFFF0028F1
:103C200007D101E00120F6E70220FDF7CBFF0028D5
:103C30000DD074480078810015A84158B068FCF791
:103C400012FB8121C905884200DCB060E5700420C8
:103C5000FDF7C4FF002804D10420FDF7B3FF0028BE
:103C60000DD068480078810015A84158B068FCF76D
:103C70004BFB7F21C905C84200D8B060E570A6E0C3
:103C800050225F49283101A8FCF7C2FA5E4801784A
:103C900060480078814201D95B4807700320FDF736
:103CA0009DFF002809D058495A4A08781278904256
:103CB00001D2401C00E0002008700220FDF78EFFBA
:103CC000554F002804D10220FDF77CFF002812D0B8
:103CD0003878010101A809184E4802784A4800784E
:103CE000101A800009587068FCF7BDFA4B498842E9
:103CF00000DC7060E5700420FDF770FF002804D13F
:103D00000420FDF75FFF002861D038787768010153
:103D100001A809183F4802783B480078101A800033
:103D200009583846FCF7F0FA3D49884201DB7060DB
:103D30000DE07F20C005874209D13846FCF792FD8F
:103D4000384A394BFCF709FCFCF7C8FD7060E57098
:103D50003DE00320FDF742FF002805D02B490878FD
:103D6000002807D0002008700220FDF737FF002848
:103D700007D101E00120F6E70220FDF723FF00282C
:103D80000DD022480078810015A84158F068FCF752
:103D90006AFA8121C905884200DCF060E5700420E0
:103DA000FDF71CFF002804D10420FDF70BFF0028BD
:103DB0000DD016480078810015A84158F068FCF72E
:103DC000A3FA7F21C905C84200D8F060E570002041
:103DD000FDF704FF002800D182E6032003F0BAF9C2
:103DE0007EE6000074040020100000202500002062
:103DF000F800002023000020F9000020240000200B
:103E0000A8D00008FD000020FE000020FF000020D8
:103E10003001002001010020000100200050C347B4
:103E2000CDCC4C3D9A9999999999B93F0120FDF7CC
:103E3000D5FEBE49002809D0F078022801D2401CE6
:103E400000E00020F070BA4807700F70F078012889
:103E500002D0022867D0B8E05022B64903A8FCF788
:103E6000D7F9B34EB44831780078814200D9377021
:103E70000320FDF7B3FE002808D0AF493078097859
:103E8000884201D2401C00E0002030700220FDF783
:103E9000A5FE002804D10220FDF794FE002813D0CF
:103EA000A64832780078A64F010103A80918A24855
:103EB0000078801A800009583868FCF7D4F9A149C5
:103EC000884200DC386025710420FDF787FE002859
:103ED00004D10420FDF776FE002876D0974832788A
:103EE0000078974E010103A80918934837680078B5
:103EF000801A800009583846FCF706FA9249884231
:103F000001DB30600DE07F20C005874209D13846D3
:103F1000FCF7A8FC8D4A8E4BFCF71FFBFCF7DEFC80
:103F20003060257151E086488A4A4068904201DD40
:103F3000012600E000267F487838C368826816931F
:103F400015927A480178B14200D907700320FDF735
:103F500045FE002807D075490878B04201D2401CC0
:103F600000E0002008700220FDF738FE002804D190
:103F70000220FDF727FE00280ED06C48704F007815
:103F8000301A810015A841587868FCF76CF972491D
:103F9000884200DC786025710420FDF71FFE0028B0
:103FA00004D10420FDF70EFE00280ED05F480078F3
:103FB000301A810015A8624E41587068FCF7A4F9C8
:103FC0006649884200DD706025710020FDF706FE1D
:103FD000002800D184E5042003F0BCF880E55548B2
:103FE0007838416900691691159052487838C1694E
:103FF0008069149113904F487838416A006A129191
:1040000011900120FDF7EAFD00280AD0307903283D
:1040100001D2401C00E00020307151480770514827
:1040200007703079504E012804D0022817D0032899
:104030005CD071E00220FDF7D1FD002804D030787B
:10404000002800D1012030700420FDF7C7FD0028B2
:1040500062D03078002800D0401E30705CE0032031
:10406000FDF7BCFD002805D03D490878002807D0A1
:10407000002008700220FDF7B1FD002807D101E003
:104080000120F6E70220FDF79DFD002811D03448FD
:104090000078810015A841583078820013A887580D
:1040A0003868FCF7E0F88121C905884201DC3860F6
:1040B00065710420FDF792FD002804D10420FDF76E
:1040C00081FD002828D026480078810015A8415895
:1040D0003078820013A886583068FCF715F97F21E4
:1040E000C905C84218D83060657115E00420FDF795
:1040F00075FD002805D03078810011A84058057062
:1041000065710220FDF76AFD002805D03078810036
:1041100011A84058077065710020FDF75FFD002869
:1041200000D1DDE4002003F015F8D9E403010020FC
:104130000201002020D10008050100200401002018
:104140002801002000C82F49CDCC4C3D9A9999995F
:104150009999B93F8FC2753D8FC2753F0AD7233DEC
:1041600007010020440100200601002030B5010AAB
:10417000000201438DB20D4C00216088401E83B2C5
:104180002088401E82B2084600F0DAF90120C00300
:104190000921C9068861208861886423484382B266
:1041A0002946034803F008FA30BD000064040020EB
:1041B00050020020F0B587B000250026171A5A1AC1
:1041C000049201900091681E002F02DD01210391ED
:1041D00003E0002F07D003907F420499002905DDFA
:1041E0000120029009E000210391F6E704990029DB
:1041F00008D002900498404204900498874204DD5D
:104200003C4603E000200290F7E7049C0020059064
:10421000601C06901BE000980C9A81B2019880B255
:1042200000F01BF8ED1904983618A54204DD2D1B8B
:104230000399019840180190A64204DD361B0299AB
:104240000098401800900598401C80B2059006998F
:1042500005988842DFDD07B0F0BD10B5144600F0C8
:1042600069F9204600F06CFA10BDFFB581B00A9CD8
:1042700006460F4615463B462A46394630460094C8
:10428000FFF798FF0094324639463046049BFFF70B
:1042900091FF049B00942A4619463046FFF78AFF97
:1042A00000942A4639462846049BFFF783FF05B051
:1042B000F0BD000070B5049C250A24022543AEB26F
:1042C000141A641C5D1A6D1C00F03AF90120C00339
:1042D0000921C90688616C43A2B2642331460748AC
:1042E00003F06AF9064841880088491E8BB2401ED7
:1042F00082B20021084600F023F970BD5002002070
:104300006404002010B5204800210278841D1300A9
:1043100003F06BFC0504101C26300F004278002AC5
:1043200002D0417000F092FD00F0F0FF207800F024
:10433000D1FD10BD4278002A02D0417002F0C8FCC5
:1043400002F002FE607802F0C9FC10BD4278002A3B
:1043500002D0417003F064F9A07803F0D3F910BDE6
:104360004278002A02D0417001F068FAE07801F04A
:10437000FBFA10BD4278002A02D0417001F05CFCCB
:10438000207901F0A5FC10BD1000002010B5614897
:104390000068016840221143016000F0BDF836203A
:1043A00000F074F9002000F061F93A2000F06EF995
:1043B000052000F05BF9B22000F068F90C2000F055
:1043C00055F90C2000F052F9002000F04FF933208D
:1043D00000F04CF9332000F049F9B72000F056F90D
:1043E000352000F043F9BB2000F050F9192000F00F
:1043F0003DF9C02000F04AF92C2000F037F9C22026
:1044000000F044F9012000F031F9C32000F03EF93A
:10441000122000F02BF9C42000F038F9202000F021
:1044200025F9C62000F032F90F2000F01FF9D02046
:1044300000F02CF9A42000F019F9A12000F016F9E1
:10444000E02000F023F9D02000F010F9042000F063
:104450000DF90D2000F00AF9112000F007F91320E2
:1044600000F004F92B2000F001F93F2000F0FEF8E5
:10447000542000F0FBF84C2000F0F8F8182000F071
:10448000F5F80D2000F0F2F80B2000F0EFF81F20F7
:1044900000F0ECF8232000F0E9F8E12000F0F6F855
:1044A000D02000F0E3F8042000F0E0F80C2000F049
:1044B000DDF8112000F0DAF8132000F0D7F82C20F6
:1044C00000F0D4F83F2000F0D1F8442000F0CEF8FE
:1044D000512000F0CBF82F2000F0C8F81F2000F08A
:1044E000C5F81F2000F0C2F8202000F0BFF82320FC
:1044F00000F0BCF8212000F0C9F8112000F0C6F847
:10450000292000F0C3F8002000F0E0F80020FFF7B9
:104510002DFE10BD5002002070B5054C1025A5627F
:104520001420FEF723F9A5611420FEF71FF970BDD2
:104530000004004800B50B46024600F001F800BD3B
:10454000FFB505460E4617461B4CA07A00F09EF8B4
:10455000A07B40190004000E00F088F8A07B4019F1
:10456000C0B200F083F8A07BC0190004000E00F078
:104570007DF8A07BC019C0B200F078F8207B00F075
:1045800085F8E07B80190004000E00F06FF8E07BF6
:104590008019C0B200F06AF8E17B039808180004A3
:1045A000000E00F063F8E17B03980818C0B200F039
:1045B0005DF800F07BF8FFBD64040020FFB581B01A
:1045C0000B9D0A982038C4B2029802990F3083B22A
:1045D0000198C01D82B20198FFF7B2FF2149002D5A
:1045E00027D000252001401800900098465D002447
:1045F00002984719F00706D00198B9B2001980B2A5
:10460000039AFFF72AFE7608641CE4B2082CF1D363
:104610006D1CEDB2102DE8D3134841880088491E67
:104620008BB2401E82B200210846FFF789FF05B019
:10463000F0BD002620014718BD5D0024E80703D027
:10464000039800F07DF802E0049800F079F86D0816
:10465000641CE4B2082CF1D3761CF6B2102EEBD316
:10466000DAE7000088A000086404002001B50120FA
:10467000C0030921C90688616423012269460248F2
:1046800002F0B3FF08BD00005002002001B5012078
:10469000C0030921C90688626423012269460248D1
:1046A00002F0A3FF08BD00005002002000B5024840
:1046B000007AFFF7EBFF00BD6404002010B50C4644
:1046C000FFF7E4FFE0B2FFF7D1FF10BD10B51B49C3
:1046D0002A224A812B228A812C220A810023F0225D
:1046E00000280FD0012816D0502402281CD00328FF
:1046F00007D10A804A808C73CB73A0213620FFF744
:10470000DDFF10BD0A804A808B73CB7300213620F9
:10471000FFF7D4FF10BD0A804A808B73CB736021F2
:104720003620FFF7CBFF10BD0A804A808B73CC7315
:10473000C0213620FFF7C2FF10BD00006404002036
:1047400000B5010A0002014389B20120C003092219
:10475000D206906164230122014802F02DFF00BDC2
:104760005002002010B51F481D4901600021416022
:104770008160C160012202610423436101764176B8
:104780008176C176C16191020162014620310A71D0
:104790008262FDF703FC002801D0FCF723FD114CD9
:1047A00006200C3C20600120000360600004A06033
:1047B00021460C48FDF754FB002801D0FCF712FD00
:1047C00007202060074907480C39FDF749FB0028FE
:1047D00001D0FCF707FD0348FDF7EAFA10BD000021
:1047E00000240140740100201CB5002400940194B1
:1047F0000C490B4808600846FDF7D9FD002801D098
:10480000FCF7F0FC0C20009001940022694605485A
:10481000FDF7AEFD002801D0FCF7E4FC1CBD000054
:1048200000740040F801002008B50C4841690122DD
:104830001143416140691040009000221146092057
:10484000FEF7C6F80920FEF7B7F8002211460A2045
:10485000FEF7BEF80A20FEF7AFF808BD00100240D0
:10486000F0B587B0142102A8FBF7EBFC2848426999
:104870000121C9040A43426142690A400192426926
:10488000C9000A43426142690A40019242694911E2
:104890000A43426142690A400192426949000A435F
:1048A0004261406908400190CF100920002239463A
:1048B000C006FEF724F8002210211648FEF71FF864
:1048C000072040030290002403940226049602A9C4
:1048D0001148FDF75DFF032502950394049602A994
:1048E0000E48FDF755FF029701260396049405959F
:1048F000092002A9C006FDF74BFF10200290039685
:104900000494059502A90348FDF742FF07B0F0BDE6
:10491000001002400004004800080048001400484D
:1049200010B511480F490160FF2105314160002198
:10493000816007221202C2600222026101224261EA
:1049400052028261C1610162416281620722C262D8
:1049500001634163FEF785FB002801D0FCF742FCB0
:1049600010BD0000003001405002002010B596B08C
:1049700000241294139414941594109411941C21EF
:1049800009A8FBF75EFC202101A8FBF75AFC33487D
:1049900031490160446084603149C160046144610F
:1049A0008461FEF781FC002801D0FCF71BFC01208C
:1049B0000003129012A92948FEF78AFD002801D0B1
:1049C000FCF710FC2548FEF766FF002801D0FCF735
:1049D00009FC1094119410A92048FEF735FC00281A
:1049E00001D0FCF7FFFB602009900A940B940C9413
:1049F0000D940E940F94002209A91848FEF7DFFECB
:104A0000002801D0FCF7EEFB042209A91348FEF7A9
:104A1000D6FE002801D0FCF7E5FB01940294039434
:104A200004940594012040030690089401A90B48C2
:104A3000FEF7DAFB002801D0FCF7D4FB0021074881
:104A4000FEF750FF04210548FEF74CFF0348FEF730
:104A500063FE16B010BD000000400140D4030020EA
:104A6000E703000030B58FB01C2108A8FBF7E9FB75
:104A700020216846FBF7E5FB22482149016000241C
:104A800044608460204DC560046144618461FEF728
:104A90000BFC002801D0FCF7A5FB1A48FEF7FBFE33
:104AA000002801D0FCF79EFB6020089009950A942D
:104AB0000B940C940D940E94002208A91148FEF753
:104AC0007EFE002801D0FCF78DFB00940194029437
:104AD0000394049401204003059007946946094813
:104AE000FEF782FB002801D0FCF77CFB0021054883
:104AF000FEF7F8FE0348FEF70FFE0FB030BD0000D2
:104B0000004401401C0400200F27000010B586B0AF
:104B1000002402940394049405940094019415488D
:104B2000134901602F21416084601349C160046111
:104B300044618461FEF7B8FB002801D0FCF752FB0A
:104B400001200003029002A90A48FEF7C1FC0028D8
:104B500001D0FCF747FB20200090019469460548EE
:104B6000FEF772FB002801D0FCF73CFB06B010BD3D
:104B7000002C0140B4020020E703000010B58EB005
:104B800000240A940B940C940D94089409941C210D
:104B900001A8FBF756FB0121214889070160472145
:104BA000416084601F49C16004618461FEF77CFB41
:104BB000002801D0FCF716FB012000030A900AA987
:104BC0001748FEF785FC002801D0FCF70BFB1448C2
:104BD000FEF761FE002801D0FCF704FB089409945D
:104BE00008A90F48FEF730FB002801D0FCF7FAFABD
:104BF00060200190029403940594082201A90848BA
:104C0000FEF7DDFD002801D0FCF7ECFA082104488E
:104C1000FEF768FE0248FEF77FFD0EB010BD0000F3
:104C2000FC020020E703000010B586B000240294C7
:104C30000394049405940094019415481349016069
:104C4000446084604721C160046180218161FEF776
:104C50002BFB002801D0FCF7C5FA012000030290CD
:104C600002A90B48FEF734FC002801D0FCF7BAFA81
:104C700020200090019469460548FEF7E5FA0028D7
:104C800001D0FCF7AFFA06B010BD000000040040F0
:104C9000440300201CB50024009401940F480E49E1
:104CA00001604721416084600D49C1608461FEF765
:104CB000FBFA002801D0FCF795FA009401946946AC
:104CC0000648FEF7C1FA002801D0FCF78BFA03482A
:104CD000FEF7A0FB1CBD0000001400408C03002068
:104CE000E7030000FEE70000F8B511480121C1828A
:104CF00000214182818200220E4F72230021D000C8
:104D0000C61900208C00341945006353401CC0B202
:104D10000228F9D3491CC9B20229F2D3521CD2B2DB
:104D2000E62AEBD37321C9000348FBF78AFAF8BDE2
:104D3000FC00002078220020E01E002010B505486D
:104D4000FEF798FB0348FEF7A9FB0348FDF7CBFAF3
:104D500010BD0000B402002074010020F0B589B03D
:104D6000002700240494121A03925A1A029204464D
:104D70000D46039A781E002A02DD0121019106E00A
:104D80000399002909D0019003994942039102999E
:104D9000002905DD0120009009E000210191F6E7DE
:104DA0000299002909D0009002984042029002998D
:104DB0000398884204DD039E03E000200090F6E79C
:104DC000029E00200590701C069029E029B220B2B6
:104DD00008910790FEF7FCFD012827D00899079855
:104DE000FEF7F6FD022827D0A9B2A0B20E9AFFF76F
:104DF00034FA03983F180299049840180490B74277
:104E000002DDBF1B019824180498B04204DD049809
:104E1000801B049000982D180598401C80B20590C6
:104E2000069905988842D1DD09B0F0BDA9B2A0B2BB
:104E3000044AFFF712FADCE7A9B2A0B2024AFFF770
:104E40000CFAD6E73084000018C6000010B50449FB
:104E500000200870FCF760F800F09AFC10BD00001C
:104E60002600002070B516480078012827D1154D7E
:104E7000154A688AE6280ED30020411C8B00D45ABC
:104E8000800014529B185B888018438088B2E52804
:104E9000F3D3E52068820D4C688A23888100535241
:104EA000638889184B800A4A01211170E62800D2D4
:104EB000401C80B26882E62801D301F0D9FA70BDA7
:104EC00025000020FC000020E01E00203200002011
:104ED00022000020F1B5C4B020213CA8FBF7B1F9B5
:104EE000202134A8FBF7ADF96C22D14919A8FBF7B2
:104EF0008FF92C22CE496C310EA8FBF789F90026D8
:104F00000A960B960C960D960696079608960996A5
:104F100002960396049605960024C6486500405BF9
:104F2000FBF73CFCC44AC54BFBF726FB0B22D243E4
:104F3000FBF702FCC24AC34BFBF715FBC24AC34B4B
:104F4000FBF782FBE7000AAAD21903C2C048405B04
:104F5000FBF724FCB84AB94BFBF70EFB0B22D243FC
:104F6000FBF7EAFBB64AB74BFBF7FDFAB64AB74B7D
:104F7000FBF76AFB06ADEA1903C2641CE4B2022C1B
:104F8000CBD3B4480621007848430EA94218B2A1F9
:104F90003CA802F0E7FD4498B14F3CAC01283FD05B
:104FA00000233A46042105200196009401F066FE94
:104FB000AC4806210078484319A94218AAA13CA888
:104FC00002F0D0FD4498022833D000233A46042151
:104FD000C3200196009401F051FEFDF797FCA34C0D
:104FE000A16A884271D3FDF791FCC830A062002409
:104FF0003746E50006AE711903C900229C4BFBF74A
:1050000059FC06D9711903C900229A4BFBF73EFCE3
:1050100018D870190CC898A13CA802F0A3FD1DE097
:105020003B460022042105200196009401F026FE53
:10503000BEE73B4600220421C3200196009401F004
:105040001DFECAE7711903C900228E4BFBF794FAC3
:1050500002460B468CA13CA802F084FD3CAA8DA11F
:1050600034A802F07FFD002C24D034A80090002347
:105070008A4AE0210197052001F000FE641CE4B299
:10508000022CB6D300240AAEE500711903C9002230
:10509000774BFBF70FFC06D9711903C90022754B3A
:1050A000FBF7F4FB12D870190CC87DA13CA802F0E4
:1050B00059FD17E034A86A4A009000231F3ACF2117
:1050C0000197052001F0DAFDD8E7A2E0711903C9C4
:1050D00000226C4BFBF750FA02460B4673A13CA82A
:1050E00002F040FD3CAA6BA134A802F03BFD002C6D
:1050F00020D034A900910023684A0197E02158206C
:1051000001F0BCFD641CE4B2022CBDD3002502AE4C
:10511000694FEC00391903C900221346FBF7B6FBAF
:1051200013D038190CC800205149FBF78DFA3219F9
:1051300003C20EE034A94A4A009100231F3A0197A6
:10514000CF21582001F09AFDDCE7002130190160E1
:105150004160311903C900221346FBF797FB43D086
:105160003119564F03C900223B46FBF7A3FB0CD86D
:10517000311903C900223B46FBF766FA02460B468B
:105180004FA13CA802F0EEFC28E031193D4F03C9C5
:1051900000223B46FBF78EFB0CD8311903C90022D5
:1051A0003B46FBF751FA02460B4648A13CA802F0E9
:1051B000D9FC13E0311903C9474A484BFBF77AFB86
:1051C00006D230190CC846A13CA802F0CBFC05E081
:1051D00030190CC845A13CA802F0C4FC3CAA46A169
:1051E00034A802F0BFFC03E045A134A802F0BAFCE9
:1051F000002D10D0002034A9034600910190274AC9
:10520000E021AB2001F03AFD6D1CEDB2022D00D281
:105210007EE745B0F0BD002034A9114A0346009155
:1052200001901F3ACF21AB2001F028FDECE70000F0
:105230008CD10008360000206666666666660A4005
:105240002FDD24068155FA3F1F85EB51B81ED53F4F
:105250003A000020F8000020252D357300000000E2
:10526000FFFF00002300002025357300FC00002014
:105270000000F03F0000F0BF4D61783D252E316CFD
:105280006656000000408F404D61783D252E306C01
:10529000666D5600252D313073000000FF7F000041
:1052A0004D696E3D252E316C665600004D696E3D90
:1052B000252E306C666D5600D01E002080842E4155
:1052C000463D252E316C664D00000000463D252EE2
:1052D000316C664B00000000AE47E17A14AEEF3F40
:1052E000463D252E306C66487A000000463D252E4E
:1052F000326C66487A000000252D397300000000EA
:10530000463D20202D2D202000000000F0B597B054
:105310001C22FE4903A8FAF77BFFFD4FF88A0128FB
:105320002AD10020F8820090CD23EA2217210620FE
:10533000FEF7C0FF0124F74E2046172148430546DB
:10534000421D401DCD230096FEF734FF082C07D2E6
:10535000294616310B46EA2206200096FEF72AFF60
:10536000641CE4B20A2CE7D3EB4872230090EA22D3
:1053700019460620FEF71EFFFDF7C8FAE449496A00
:1053800088427DD3E5480078012879D1FDF7BEFA3F
:10539000DF490A304862E2480078002804D0488A91
:1053A00088820F90002667E1DE48FF210288D6310F
:1053B0008A4200D901800026DB48D54A007812785D
:1053C00003A98000D94D97000858FBF74BFA0B460C
:1053D000024600202946FBF737F91690D14815916F
:1053E00000881490149830188400D148005BFBF7B3
:1053F000D5F9D14DCF4A2B46FBF7BEF80B22D2434D
:10540000FBF79AF9CD4ACE4BFBF7A7F8CD4ACE4B26
:10541000FBF71AF9FBF762FA0290C548201840889A
:10542000FBF7BCF9C34A2B46FBF7A6F80B22D24385
:10543000FBF782F9C14AC24BFBF78FF8C14AC24B56
:10544000FBF702F9FBF74AFA0190159D169C0298AA
:10545000FBF708FA22462B46FBF78EF8FBF7C0F95C
:10546000723001B2B948F200101813901290C15373
:105470001191159D169C0198FBF7F4F9224600E066
:105480007EE12B46FBF778F8FBF7AAF9723003B2FE
:105490001298C01943801199172902DA139917221B
:1054A000CA53172B01DA17234380139BDB5FCD2BE5
:1054B00002DD139BCD24DC530223C35ECD2B01DD23
:1054C000CD234380761CB6B2E62E8BD30025002078
:1054D0000090681C10909D4AC0008D49861808787D
:1054E000002846D000239B00EC00F35AA7180028A0
:1054F00041D00020EC1D8000395AAD1DA2B2A8B2E7
:10550000FFF72CFC0020824900900878002834D056
:1055100000229200B2185388002830D0002080006A
:1055200038184188A2B2A8B2FFF718FC884800904A
:10553000774800788200B35AB95AA2B2A8B2FEF7EF
:1055400039FE844800907248A2B200788000311879
:105550004B8838184188A8B2FEF72CFE109885B207
:10556000E42DB4D36A49087800280AD000200870D6
:1055700003E10123B7E70120BCE70122C9E70120CD
:10558000CDE70120F3E77448B400005BFBF706F9B0
:10559000694D684A2B46FAF7EFFF0B22D243FBF71F
:1055A000CBF8664A664BFAF7D8FF664A664BFBF7BC
:1055B0004BF8FBF793F90746674820184088FBF73C
:1055C000EDF85C4A2B46FAF7D7FF0B22D243FBF7E4
:1055D000B3F85A4A5A4BFAF7C0FF5A4A5A4BFBF7EC
:1055E00033F8FBF77BF902904F480078810003A85D
:1055F0004058FBF737F902460B4600204B49FBF7B2
:1056000023F804460E900D460D913846FBF72AF913
:1056100022462B46FAF7B0FFFBF7E2F872304B490F
:10562000F700C8530D9D0E9C0298FBF71BF922460C
:105630002B46FAF7A1FFFBF7D3F8444972307918EB
:1056400048804248C05F172802DA40481722C253F8
:1056500002228A5E3D48172A01DA17224A80C25F79
:10566000CD2A01DDCD22C2530220085ECD2801DD06
:10567000CD204880761CB6B20F98864283D30F980F
:10568000022877D900243AE0008B801E844219DA80
:1056900000200090601C2D49C00040180C908388A9
:1056A000E0004718E51DA61DAAB2B988B0B2FFF701
:1056B00055FB002000900C98AAB2C388F988B0B2BC
:1056C000FFF74CFB2248661C0090F0001F4D0B902A
:1056D0002B5AE01DE7000A9082B2A41DE95BA0B23C
:1056E000FEF768FD1B4800900B98401943880A9804
:1056F00082B278194188A0B2FEF75CFDB4B20448CA
:10570000818A891E8C42BFDB002028E070D100080E
:10571000FC0000203084000018C600002200002099
:105720002500002030000020F80000200000374055
:10573000F00400206666666666660A402FDD240671
:105740008155FA3F1F85EB51B81ED53F78220020C6
:10575000E0FF0000FF7F0000E01E00200AE0094A91
:10576000C100535A89188B804B88CB80401C80B273
:10577000E628F5D30448818A018304490020087093
:1057800017B0F0BD78220020FC000020220000208D
:105790001CB5002008A10C4C034600910190224644
:1057A0000421482001F06AFACE23EB2216210520BD
:1057B0000094FEF75AFD1CBD4F7363696C6C6F73E8
:1057C000636F706500000000FFFF000073B5194EA5
:1057D0000124194D06E0641C21463046FAF78AFC84
:1057E0000029F8D121463046FAF784FCFAF7BAFFCF
:1057F0000099FAF7CEFDA842EDDC21463046FAF7D3
:1058000079FCFAF7AFFF0099FAF7C3FD0646641E6C
:105810000125AD07AC623046FAF7CEFF401EE862C4
:1058200030460199FAF778FDFAF7C6FFE8630020E1
:1058300068627CBD00A24A0400FF7F477CB500245B
:105840002CA02F4D009023462A460421019450207D
:1058500001F014FA0A20EA2300901A461921019552
:105860000520FBF72FFC8223E9221946062000952C
:10587000FEF7A0FC23A0009000232A469921019462
:105880000F2001F0FBF922A0009000232A46C3213B
:1058900001940F2001F0F2F920A0009000232A4685
:1058A000282101940A2001F0E9F91EA000900023AC
:1058B0002A46642101940A2001F0E0F92D240621F2
:1058C0002046FAF717FC032909D32A46302120463F
:1058D000FEF7C3FC2A466C212046FEF7BEFC641C82
:1058E000E4B24B2CEBD3114829464068FBF738FC57
:1058F0007CBD000050574D205369676E616C0000FD
:10590000FFFF00004672657175656E6379000000E7
:1059100044757479204379636C650000332E3356E7
:105920000000000020203056000000002801002068
:1059300070B50646094C0A4D61686868FAF7EAFFD7
:105940000BD0032E07D100216868FBF709FC05493D
:105950006068FBF705FC6068686070BD2801002086
:1059600048010020FFFF0000F1B592B020210AA8F5
:10597000FAF767FC202102A8FAF763FC9448944EDA
:1059800000687F21C9052C3E0024884209DA347260
:10599000FAF768FF02460B468EA10AA802F0E2F869
:1059A00081E08E498A4F88420FDA01213172FAF77D
:1059B00003FFFAF7D7FE3860FAF754FF02460B46AA
:1059C00087A10AA802F0CEF86DE08749874D88428A
:1059D00023DA02213172FAF745FF0022844BFAF7ED
:1059E00033FEFAF721FFFAF7D9FE00222B46FAF729
:1059F000C3FD00227F4BFAF727FEFAF76FFF3860EE
:105A0000FAF730FF00222B46FAF71EFE02460B463D
:105A100079A10AA802F0A6F845E07A49884223DA7B
:105A200003213172FAF71EFF0022724BFAF70CFEC7
:105A3000FAF7FAFEFAF7B2FE00222B46FAF79CFDBF
:105A400000226B4BFAF700FEFAF748FF3860FAF7CE
:105A500009FF00222B46FAF7F7FD02460B466AA122
:105A60000AA802F07FF81EE004213172FAF7FAFE6C
:105A700000222B46FAF7E8FDFAF7D6FEFAF78EFE7B
:105A800000222B46FAF778FDFAF728FF3860FAF77C
:105A9000E9FE00222B46FAF7D7FD02460B465DA130
:105AA0000AA802F05FF80AAA5DA102A802F05AF85B
:105AB00002A801F005FB401EC0B27072717C8142E9
:105AC00007D07074317C307A814201D0307400E0AC
:105AD000B471317C307A814201D03074B471129843
